{
  "contractName": "Patient",
  "abi": [
    {
      "constant": true,
      "inputs": [
        {
          "name": "",
          "type": "address"
        },
        {
          "name": "",
          "type": "uint256"
        }
      ],
      "name": "dataUpdates",
      "outputs": [
        {
          "name": "updater",
          "type": "address"
        },
        {
          "name": "numberOfUpdates",
          "type": "uint256"
        },
        {
          "name": "timestamp",
          "type": "uint256"
        },
        {
          "name": "jsonHash",
          "type": "bytes32"
        },
        {
          "name": "ipfs2Hash",
          "type": "bytes32"
        }
      ],
      "payable": false,
      "stateMutability": "view",
      "type": "function"
    },
    {
      "constant": true,
      "inputs": [
        {
          "name": "_addr",
          "type": "address"
        },
        {
          "name": "_indexFingerprint",
          "type": "bytes32"
        },
        {
          "name": "_func",
          "type": "string"
        }
      ],
      "name": "owner",
      "outputs": [
        {
          "name": "",
          "type": "address"
        }
      ],
      "payable": false,
      "stateMutability": "view",
      "type": "function"
    },
    {
      "constant": false,
      "inputs": [
        {
          "name": "_addr",
          "type": "address"
        },
        {
          "name": "_indexFingerprint",
          "type": "bytes32"
        },
        {
          "name": "_func",
          "type": "string"
        }
      ],
      "name": "createPatient",
      "outputs": [
        {
          "name": "requester",
          "type": "address"
        },
        {
          "name": "timestamp",
          "type": "uint256"
        }
      ],
      "payable": false,
      "stateMutability": "nonpayable",
      "type": "function"
    },
    {
      "constant": true,
      "inputs": [
        {
          "name": "",
          "type": "address"
        },
        {
          "name": "",
          "type": "uint256"
        }
      ],
      "name": "dataAccesses",
      "outputs": [
        {
          "name": "requester",
          "type": "address"
        },
        {
          "name": "timestamp",
          "type": "uint256"
        }
      ],
      "payable": false,
      "stateMutability": "view",
      "type": "function"
    },
    {
      "constant": true,
      "inputs": [
        {
          "name": "indexPrint",
          "type": "bytes32"
        },
        {
          "name": "_ipfshashHash",
          "type": "bytes32"
        },
        {
          "name": "_jsonHash",
          "type": "bytes32"
        }
      ],
      "name": "userExists",
      "outputs": [
        {
          "name": "",
          "type": "bool"
        }
      ],
      "payable": false,
      "stateMutability": "view",
      "type": "function"
    },
    {
      "constant": false,
      "inputs": [
        {
          "name": "_pcp",
          "type": "address"
        },
        {
          "name": "_ipfshashHash",
          "type": "bytes32"
        },
        {
          "name": "_jsonHash",
          "type": "bytes32"
        }
      ],
      "name": "updateData",
      "outputs": [
        {
          "name": "",
          "type": "string"
        }
      ],
      "payable": false,
      "stateMutability": "nonpayable",
      "type": "function"
    },
    {
      "inputs": [
        {
          "name": "_requester",
          "type": "address"
        },
        {
          "name": "_indexFingerprint",
          "type": "bytes32"
        },
        {
          "name": "_jsonHash",
          "type": "bytes32"
        }
      ],
      "payable": false,
      "stateMutability": "view",
      "type": "function",
      "constant": true,
      "name": "accessData",
      "outputs": [
        {
          "name": "",
          "type": "string"
        }
      ]
    },
    {
      "anonymous": false,
      "inputs": [],
      "name": "patientCreated",
      "type": "constructor",
      "payable": false,
      "stateMutability": "nonpayable"
    },
    {
      "anonymous": false,
      "inputs": [
        {
          "indexed": false,
          "name": "patient",
          "type": "address"
        }
      ],
      "name": "patientCreated",
      "type": "event"
    },
    {
      "anonymous": false,
      "inputs": [
        {
          "indexed": false,
          "name": "patient",
          "type": "address"
        },
        {
          "indexed": false,
          "name": "patient",
          "type": "address"
        }
      ],
      "name": "dataUpdated",
      "type": "event"
    },
    {
      "anonymous": false,
      "inputs": [
        {
          "indexed": false,
          "name": "requester",
          "type": "address"
        },
        {
          "indexed": false,
          "name": "patient",
          "type": "address"
        }
      ],
      "name": "dataAccessed",
      "type": "event"
    },
    {
      "anonymous": false,
      "inputs": [],
      "name": "contractInitialized",
      "type": "event"
    }
  ],
  "bytecode": "0x6060604052341561000f57600080fd5b336000806101000a81548173ffffffffffffffffffffffffffffffffffffffff021916908373ffffffffffffffffffffffffffffffffffffffff1602179055507eb347479a9632609e83cd4d86f1f2af6b84368b0830e2e03a1078f39c0dd9cd60405160405180910390a1610d92806100896000396000f300606060405260043610610083576000357c0100000000000000000000000000000000000000000000000000000000900463ffffffff1680634550967a146100885780638da5cb5b1461013657806391a8cdb01461018b5780639df5819314610214578063a2e8452c1461029d578063abbea463146102dc578063df41932b1461032f575b600080fd5b341561009357600080fd5b6100c8600480803573ffffffffffffffffffffffffffffffffffffffff169060200190919080359060200190919050506103ee565b604051808673ffffffffffffffffffffffffffffffffffffffff1673ffffffffffffffffffffffffffffffffffffffff168152602001858152602001848152602001836000191660001916815260200182600019166000191681526020019550505050505060405180910390f35b341561014157600080fd5b610149610460565b604051808273ffffffffffffffffffffffffffffffffffffffff1673ffffffffffffffffffffffffffffffffffffffff16815260200191505060405180910390f35b341561019657600080fd5b610212600480803573ffffffffffffffffffffffffffffffffffffffff169060200190919080356000191690602001909190803590602001908201803590602001908080601f01602080910402602001604051908101604052809392919081815260200183838082843782019150505050505091905050610485565b005b341561021f57600080fd5b610254600480803573ffffffffffffffffffffffffffffffffffffffff16906020019091908035906020019091905050610564565b604051808373ffffffffffffffffffffffffffffffffffffffff1673ffffffffffffffffffffffffffffffffffffffff1681526020018281526020019250505060405180910390f35b34156102a857600080fd5b6102c26004808035600019169060200190919050506105c4565b604051808215151515815260200191505060405180910390f35b34156102e757600080fd5b61032d600480803573ffffffffffffffffffffffffffffffffffffffff169060200190919080356000191690602001909190803560001916906020019091905050610648565b005b341561033a57600080fd5b610373600480803573ffffffffffffffffffffffffffffffffffffffff16906020019091908035600019169060200190919050506108e5565b6040518080602001828103825283818151815260200191508051906020019080838360005b838110156103b3578082015181840152602081019050610398565b50505050905090810190601f1680156103e05780820380516001836020036101000a031916815260200191505b509250505060405180910390f35b60046020528160005260406000208181548110151561040957fe5b9060005260206000209060050201600091509150508060000160009054906101000a900473ffffffffffffffffffffffffffffffffffffffff16908060010154908060020154908060030154908060040154905085565b6000809054906101000a900473ffffffffffffffffffffffffffffffffffffffff1681565b8260016000846000191660001916815260200190815260200160002060006101000a81548173ffffffffffffffffffffffffffffffffffffffff021916908373ffffffffffffffffffffffffffffffffffffffff16021790555080600260008573ffffffffffffffffffffffffffffffffffffffff1673ffffffffffffffffffffffffffffffffffffffff1681526020019081526020016000209080519060200190610532929190610b95565b507fd29b675392b8fa2946f5d239a991b0d168a7228cb18083495491f96447f9bca960405160405180910390a1505050565b60036020528160005260406000208181548110151561057f57fe5b9060005260206000209060020201600091509150508060000160009054906101000a900473ffffffffffffffffffffffffffffffffffffffff16908060010154905082565b60008073ffffffffffffffffffffffffffffffffffffffff1660016000846000191660001916815260200190815260200160002060009054906101000a900473ffffffffffffffffffffffffffffffffffffffff1673ffffffffffffffffffffffffffffffffffffffff16141561063e5760009050610643565b600190505b919050565b6000806000809054906101000a900473ffffffffffffffffffffffffffffffffffffffff1673ffffffffffffffffffffffffffffffffffffffff163373ffffffffffffffffffffffffffffffffffffffff161415156106a657600080fd5b429150600460008673ffffffffffffffffffffffffffffffffffffffff1673ffffffffffffffffffffffffffffffffffffffff1681526020019081526020016000206001600460008873ffffffffffffffffffffffffffffffffffffffff1673ffffffffffffffffffffffffffffffffffffffff168152602001908152602001600020805490500381548110151561073a57fe5b9060005260206000209060050201600101549050600460008673ffffffffffffffffffffffffffffffffffffffff1673ffffffffffffffffffffffffffffffffffffffff168152602001908152602001600020805480600101828161079f9190610c15565b9160005260206000209060050201600060a0604051908101604052808973ffffffffffffffffffffffffffffffffffffffff168152602001600186018152602001868152602001876000191681526020018860001916815250909190915060008201518160000160006101000a81548173ffffffffffffffffffffffffffffffffffffffff021916908373ffffffffffffffffffffffffffffffffffffffff160217905550602082015181600101556040820151816002015560608201518160030190600019169055608082015181600401906000191690555050507f164fb2153ae5c20db43f762b4348304a5721487552b2b3e33605dbca4e59c37585604051808273ffffffffffffffffffffffffffffffffffffffff1673ffffffffffffffffffffffffffffffffffffffff16815260200191505060405180910390a15050505050565b6108ed610c47565b600080600042925060016000866000191660001916815260200190815260200160002060009054906101000a900473ffffffffffffffffffffffffffffffffffffffff169150600360008373ffffffffffffffffffffffffffffffffffffffff1673ffffffffffffffffffffffffffffffffffffffff16815260200190815260200160002080548060010182816109849190610c5b565b9160005260206000209060020201600060408051908101604052808a73ffffffffffffffffffffffffffffffffffffffff16815260200187815250909190915060008201518160000160006101000a81548173ffffffffffffffffffffffffffffffffffffffff021916908373ffffffffffffffffffffffffffffffffffffffff160217905550602082015181600101555050507fb16d79a8a1bcfe667845b3d19be52b465b77b7a66413cd1bdd1e1780d7c936088683604051808373ffffffffffffffffffffffffffffffffffffffff1673ffffffffffffffffffffffffffffffffffffffff1681526020018273ffffffffffffffffffffffffffffffffffffffff1673ffffffffffffffffffffffffffffffffffffffff1681526020019250505060405180910390a1600260008373ffffffffffffffffffffffffffffffffffffffff1673ffffffffffffffffffffffffffffffffffffffff1681526020019081526020016000209050808054600181600116156101000203166002900480601f016020809104026020016040519081016040528092919081815260200182805460018160011615610100020316600290048015610b855780601f10610b5a57610100808354040283529160200191610b85565b820191906000526020600020905b815481529060010190602001808311610b6857829003601f168201915b5050505050935050505092915050565b828054600181600116156101000203166002900490600052602060002090601f016020900481019282601f10610bd657805160ff1916838001178555610c04565b82800160010185558215610c04579182015b82811115610c03578251825591602001919060010190610be8565b5b509050610c119190610c8d565b5090565b815481835581811511610c4257600502816005028360005260206000209182019101610c419190610cb2565b5b505050565b602060405190810160405280600081525090565b815481835581811511610c8857600202816002028360005260206000209182019101610c879190610d18565b5b505050565b610caf91905b80821115610cab576000816000905550600101610c93565b5090565b90565b610d1591905b80821115610d1157600080820160006101000a81549073ffffffffffffffffffffffffffffffffffffffff0219169055600182016000905560028201600090556003820160009055600482016000905550600501610cb8565b5090565b90565b610d6391905b80821115610d5f57600080820160006101000a81549073ffffffffffffffffffffffffffffffffffffffff0219169055600182016000905550600201610d1e565b5090565b905600a165627a7a723058209b0651da5d03e22ba2c4a7124fe45329bad87228034d506dff256417401be72a0029",
  "source": "pragma solidity ^0.4.15;\n\ncontract Patient {\n\n  address public owner;\n\n  struct AccessData {\n    address requester;\n    uint timestamp;\n  }\n\n  struct UpdateData {\n    address updater;\n    uint numberOfUpdates;\n    uint timestamp;\n    bytes32 jsonHash;\n    bytes32 ipfs2Hash;\n  }\n\n  struct User {\n    address addr;\n    bytes32 transformed; // hash that allows to store and retrieve data\n  }\n\n  mapping (bytes32 => address) private patients; // index fingerprint to user\n  mapping (address => string) private patientToFunc;\n  mapping (address => AccessData[]) public dataAccesses;\n  mapping (address => UpdateData[]) public dataUpdates;\n\n  event patientCreated();\n  event dataUpdated(address patient);\n  event dataAccessed(address requester, address patient);\n  event contractInitialized();\n\n  modifier ownlerOnly() {\n    require(msg.sender == owner);\n    _;\n  }\n\n\n//constructor\n  function Patient() public {\n    owner = msg.sender; // patient owner of the contract ?\n    contractInitialized();\n  }\n\n  function userExists(bytes32 indexPrint) constant public returns (bool) {\n    if (patients[indexPrint] == address(0)) return false;\n    else return true;\n  }\n\n  function createPatient(address _addr, bytes32 _indexFingerprint, string _func) public {\n    patients[_indexFingerprint] = _addr;\n    patientToFunc[_addr] = _func;\n    patientCreated();\n  }\n\n  function accessData(address _requester, bytes32 _indexFingerprint) constant public returns (string) {\n    uint time = now;\n    address patientAddr = patients[_indexFingerprint];\n    dataAccesses[patientAddr].push(AccessData({\n      requester: _requester,\n      timestamp: time\n      }));\n    dataAccessed(_requester, patientAddr);\n    string storage func = patientToFunc[patientAddr];\n    return func;\n  }\n\n  function updateData(address _pcp, bytes32 _ipfshashHash, bytes32 _jsonHash) ownlerOnly() public {\n    uint time = now;\n    uint updates = dataUpdates[_pcp][dataUpdates[_pcp].length -1].numberOfUpdates;\n    dataUpdates[_pcp].push(UpdateData({\n      updater: _pcp,\n      numberOfUpdates: updates + 1,\n      timestamp: time,\n      jsonHash: _jsonHash,\n      ipfs2Hash: _ipfshashHash}));\n    dataUpdated(_pcp);\n  }\n}\n",
  "sourcePath": "/Users/federico/Desktop/Blockchain/HealthChain/contracts/Patient.sol",
  "compiler": {
    "name": "solc",
    "version": "0.4.18+commit.9cf6e910.Emscripten.clang"
  },
  "schemaVersion": "1.0.1",
  "updatedAt": "2017-12-08T08:04:14.134Z"
}