{
  "contractName": "Patient",
  "abi": [
    {
      "constant": false,
      "inputs": [
        {
          "name": "_pcp",
          "type": "address"
        },
        {
          "name": "_ipfshashHash",
          "type": "string"
        },
        {
          "name": "_jsonHash",
          "type": "string"
        }
      ],
      "name": "updateData",
      "outputs": [
        {
          "name": "updater",
          "type": "address"
        },
        {
          "name": "numberOfUpdates",
          "type": "uint256"
        },
        {
          "name": "timestamp",
          "type": "uint256"
        },
        {
          "name": "jsonHash",
          "type": "bytes32"
        },
        {
          "name": "ipfs2Hash",
          "type": "bytes32"
        }
      ],
      "payable": false,
      "stateMutability": "nonpayable",
      "type": "function"
    },
    {
      "constant": false,
      "inputs": [
        {
          "name": "_addr",
          "type": "address"
        },
        {
          "name": "_indexFingerprint",
          "type": "string"
        },
        {
          "name": "_func",
          "type": "string"
        }
      ],
      "name": "createPatient",
      "outputs": [
        {
          "name": "",
          "type": "address"
        }
      ],
      "payable": false,
      "stateMutability": "nonpayable",
      "type": "function"
    },
    {
      "constant": true,
      "inputs": [
        {
          "name": "",
          "type": "address"
        },
        {
          "name": "",
          "type": "uint256"
        },
        {
          "name": "_func",
          "type": "string"
        }
      ],
      "name": "dataUpdates",
      "outputs": [
        {
          "name": "updater",
          "type": "address"
        },
        {
          "name": "numberOfUpdates",
          "type": "uint256"
        },
        {
          "name": "timestamp",
          "type": "uint256"
        },
        {
          "name": "jsonHash",
          "type": "string"
        },
        {
          "name": "ipfs2Hash",
          "type": "string"
        }
      ],
      "payable": false,
      "stateMutability": "view",
      "type": "function"
    },
    {
      "constant": true,
      "inputs": [
        {
          "name": "_requester",
          "type": "address"
        },
        {
          "name": "_indexFingerprint",
          "type": "string"
        }
      ],
      "name": "accessData",
      "outputs": [
        {
          "name": "",
          "type": "string"
        },
        {
          "name": "timestamp",
          "type": "uint256"
        }
      ],
      "payable": false,
      "stateMutability": "view",
      "type": "function"
    },
    {
      "constant": true,
      "inputs": [
        {
          "name": "indexPrint",
          "type": "bytes32"
        },
        {
          "name": "_ipfshashHash",
          "type": "bytes32"
        },
        {
          "name": "_jsonHash",
          "type": "bytes32"
        }
      ],
      "name": "owner",
      "outputs": [
        {
          "name": "",
          "type": "address"
        }
      ],
      "payable": false,
      "stateMutability": "view",
      "type": "function"
    },
    {
      "constant": true,
      "inputs": [
        {
          "name": "",
          "type": "address"
        },
        {
          "name": "",
          "type": "uint256"
        },
        {
          "name": "_jsonHash",
          "type": "bytes32"
        }
      ],
      "name": "dataAccesses",
      "outputs": [
        {
          "name": "requester",
          "type": "address"
        },
        {
          "name": "timestamp",
          "type": "uint256"
        }
      ],
      "payable": false,
      "stateMutability": "view",
      "type": "function"
    },
    {
      "inputs": [
        {
          "name": "indexPrint",
          "type": "string"
        },
        {
          "name": "_indexFingerprint",
          "type": "bytes32"
        },
        {
          "name": "_jsonHash",
          "type": "bytes32"
        }
      ],
      "payable": false,
      "stateMutability": "view",
      "type": "function",
      "constant": true,
      "name": "userExists",
      "outputs": [
        {
          "name": "",
          "type": "bool"
        }
      ]
    },
    {
      "anonymous": false,
      "inputs": [],
      "name": "patientCreated",
      "type": "constructor",
      "payable": false,
      "stateMutability": "nonpayable"
    },
    {
      "anonymous": false,
      "inputs": [
        {
          "indexed": false,
          "name": "patient",
          "type": "address"
        }
      ],
      "name": "patientCreated",
      "type": "event"
    },
    {
      "anonymous": false,
      "inputs": [
        {
          "indexed": false,
          "name": "patient",
          "type": "address"
        },
        {
          "indexed": false,
          "name": "patient",
          "type": "address"
        }
      ],
      "name": "dataUpdated",
      "type": "event"
    },
    {
      "anonymous": false,
      "inputs": [
        {
          "indexed": false,
          "name": "requester",
          "type": "address"
        },
        {
          "indexed": false,
          "name": "patient",
          "type": "address"
        }
      ],
      "name": "dataAccessed",
      "type": "event"
    },
    {
      "anonymous": false,
      "inputs": [],
      "name": "contractInitialized",
      "type": "event"
    }
  ],
  "bytecode": "0x6060604052341561000f57600080fd5b336000806101000a81548173ffffffffffffffffffffffffffffffffffffffff021916908373ffffffffffffffffffffffffffffffffffffffff1602179055507eb347479a9632609e83cd4d86f1f2af6b84368b0830e2e03a1078f39c0dd9cd60405160405180910390a161116b806100896000396000f300606060405260043610610082576000357c0100000000000000000000000000000000000000000000000000000000900463ffffffff168062a08017146100875780633c2bb477146101465780634550967a14610205578063517ad0fc146103a75780638da5cb5b1461049c5780639df58193146104f1578063fddc968e1461057a575b600080fd5b341561009257600080fd5b610144600480803573ffffffffffffffffffffffffffffffffffffffff1690602001909190803590602001908201803590602001908080601f0160208091040260200160405190810160405280939291908181526020018383808284378201915050505050509190803590602001908201803590602001908080601f016020809104026020016040519081016040528093929190818152602001838380828437820191505050505050919050506105ef565b005b341561015157600080fd5b610203600480803573ffffffffffffffffffffffffffffffffffffffff1690602001909190803590602001908201803590602001908080601f0160208091040260200160405190810160405280939291908181526020018383808284378201915050505050509190803590602001908201803590602001908080601f0160208091040260200160405190810160405280939291908181526020018383808284378201915050505050509190505061089e565b005b341561021057600080fd5b610245600480803573ffffffffffffffffffffffffffffffffffffffff169060200190919080359060200190919050506109cd565b604051808673ffffffffffffffffffffffffffffffffffffffff1673ffffffffffffffffffffffffffffffffffffffff16815260200185815260200184815260200180602001806020018381038352858181546001816001161561010002031660029004815260200191508054600181600116156101000203166002900480156103105780601f106102e557610100808354040283529160200191610310565b820191906000526020600020905b8154815290600101906020018083116102f357829003601f168201915b50508381038252848181546001816001161561010002031660029004815260200191508054600181600116156101000203166002900480156103935780601f1061036857610100808354040283529160200191610393565b820191906000526020600020905b81548152906001019060200180831161037657829003601f168201915b505097505050505050505060405180910390f35b34156103b257600080fd5b610421600480803573ffffffffffffffffffffffffffffffffffffffff1690602001909190803590602001908201803590602001908080601f01602080910402602001604051908101604052809392919081815260200183838082843782019150505050505091905050610a3d565b6040518080602001828103825283818151815260200191508051906020019080838360005b83811015610461578082015181840152602081019050610446565b50505050905090810190601f16801561048e5780820380516001836020036101000a031916815260200191505b509250505060405180910390f35b34156104a757600080fd5b6104af610d3d565b604051808273ffffffffffffffffffffffffffffffffffffffff1673ffffffffffffffffffffffffffffffffffffffff16815260200191505060405180910390f35b34156104fc57600080fd5b610531600480803573ffffffffffffffffffffffffffffffffffffffff16906020019091908035906020019091905050610d62565b604051808373ffffffffffffffffffffffffffffffffffffffff1673ffffffffffffffffffffffffffffffffffffffff1681526020018281526020019250505060405180910390f35b341561058557600080fd5b6105d5600480803590602001908201803590602001908080601f01602080910402602001604051908101604052809392919081815260200183838082843782019150505050505091905050610dc2565b604051808215151515815260200191505060405180910390f35b6000806000809054906101000a900473ffffffffffffffffffffffffffffffffffffffff1673ffffffffffffffffffffffffffffffffffffffff163373ffffffffffffffffffffffffffffffffffffffff1614151561064d57600080fd5b429150600460008673ffffffffffffffffffffffffffffffffffffffff1673ffffffffffffffffffffffffffffffffffffffff1681526020019081526020016000206001600460008873ffffffffffffffffffffffffffffffffffffffff1673ffffffffffffffffffffffffffffffffffffffff16815260200190815260200160002080549050038154811015156106e157fe5b9060005260206000209060050201600101549050600460008673ffffffffffffffffffffffffffffffffffffffff1673ffffffffffffffffffffffffffffffffffffffff16815260200190815260200160002080548060010182816107469190610e96565b9160005260206000209060050201600060a0604051908101604052808973ffffffffffffffffffffffffffffffffffffffff16815260200160018601815260200186815260200187815260200188815250909190915060008201518160000160006101000a81548173ffffffffffffffffffffffffffffffffffffffff021916908373ffffffffffffffffffffffffffffffffffffffff16021790555060208201518160010155604082015181600201556060820151816003019080519060200190610813929190610ec8565b506080820151816004019080519060200190610830929190610ec8565b505050507f164fb2153ae5c20db43f762b4348304a5721487552b2b3e33605dbca4e59c37585604051808273ffffffffffffffffffffffffffffffffffffffff1673ffffffffffffffffffffffffffffffffffffffff16815260200191505060405180910390a15050505050565b826001836040518082805190602001908083835b6020831015156108d757805182526020820191506020810190506020830392506108b2565b6001836020036101000a038019825116818451168082178552505050505050905001915050908152602001604051809103902060006101000a81548173ffffffffffffffffffffffffffffffffffffffff021916908373ffffffffffffffffffffffffffffffffffffffff16021790555080600260008573ffffffffffffffffffffffffffffffffffffffff1673ffffffffffffffffffffffffffffffffffffffff168152602001908152602001600020908051906020019061099b929190610f48565b507fd29b675392b8fa2946f5d239a991b0d168a7228cb18083495491f96447f9bca960405160405180910390a1505050565b6004602052816000526040600020818154811015156109e857fe5b9060005260206000209060050201600091509150508060000160009054906101000a900473ffffffffffffffffffffffffffffffffffffffff1690806001015490806002015490806003019080600401905085565b610a45610fc8565b60008060004292506001856040518082805190602001908083835b602083101515610a855780518252602082019150602081019050602083039250610a60565b6001836020036101000a038019825116818451168082178552505050505050905001915050908152602001604051809103902060009054906101000a900473ffffffffffffffffffffffffffffffffffffffff169150600360008373ffffffffffffffffffffffffffffffffffffffff1673ffffffffffffffffffffffffffffffffffffffff1681526020019081526020016000208054806001018281610b2c9190610fdc565b9160005260206000209060020201600060408051908101604052808a73ffffffffffffffffffffffffffffffffffffffff16815260200187815250909190915060008201518160000160006101000a81548173ffffffffffffffffffffffffffffffffffffffff021916908373ffffffffffffffffffffffffffffffffffffffff160217905550602082015181600101555050507fb16d79a8a1bcfe667845b3d19be52b465b77b7a66413cd1bdd1e1780d7c936088683604051808373ffffffffffffffffffffffffffffffffffffffff1673ffffffffffffffffffffffffffffffffffffffff1681526020018273ffffffffffffffffffffffffffffffffffffffff1673ffffffffffffffffffffffffffffffffffffffff1681526020019250505060405180910390a1600260008373ffffffffffffffffffffffffffffffffffffffff1673ffffffffffffffffffffffffffffffffffffffff1681526020019081526020016000209050808054600181600116156101000203166002900480601f016020809104026020016040519081016040528092919081815260200182805460018160011615610100020316600290048015610d2d5780601f10610d0257610100808354040283529160200191610d2d565b820191906000526020600020905b815481529060010190602001808311610d1057829003601f168201915b5050505050935050505092915050565b6000809054906101000a900473ffffffffffffffffffffffffffffffffffffffff1681565b600360205281600052604060002081815481101515610d7d57fe5b9060005260206000209060020201600091509150508060000160009054906101000a900473ffffffffffffffffffffffffffffffffffffffff16908060010154905082565b60008073ffffffffffffffffffffffffffffffffffffffff166001836040518082805190602001908083835b602083101515610e135780518252602082019150602081019050602083039250610dee565b6001836020036101000a038019825116818451168082178552505050505050905001915050908152602001604051809103902060009054906101000a900473ffffffffffffffffffffffffffffffffffffffff1673ffffffffffffffffffffffffffffffffffffffff161415610e8c5760009050610e91565b600190505b919050565b815481835581811511610ec357600502816005028360005260206000209182019101610ec2919061100e565b5b505050565b828054600181600116156101000203166002900490600052602060002090601f016020900481019282601f10610f0957805160ff1916838001178555610f37565b82800160010185558215610f37579182015b82811115610f36578251825591602001919060010190610f1b565b5b509050610f449190611084565b5090565b828054600181600116156101000203166002900490600052602060002090601f016020900481019282601f10610f8957805160ff1916838001178555610fb7565b82800160010185558215610fb7579182015b82811115610fb6578251825591602001919060010190610f9b565b5b509050610fc49190611084565b5090565b602060405190810160405280600081525090565b8154818355818115116110095760020281600202836000526020600020918201910161100891906110a9565b5b505050565b61108191905b8082111561107d57600080820160006101000a81549073ffffffffffffffffffffffffffffffffffffffff02191690556001820160009055600282016000905560038201600061106491906110f7565b60048201600061107491906110f7565b50600501611014565b5090565b90565b6110a691905b808211156110a257600081600090555060010161108a565b5090565b90565b6110f491905b808211156110f057600080820160006101000a81549073ffffffffffffffffffffffffffffffffffffffff02191690556001820160009055506002016110af565b5090565b90565b50805460018160011615610100020316600290046000825580601f1061111d575061113c565b601f01602090049060005260206000209081019061113b9190611084565b5b505600a165627a7a723058205ae7adfdd5fd9766135f6aa1d07f7d09086eed6ffb6ad94cb52bb609b9fea6bc0029",
  "source": "pragma solidity ^0.4.15;\n\ncontract Patient {\n\n  address public owner;\n\n  struct AccessData {\n    address requester;\n    uint timestamp;\n  }\n\n  struct UpdateData {\n    address updater;\n    uint numberOfUpdates;\n    uint timestamp;\n    string jsonHash;\n    string ipfs2Hash;\n  }\n\n  struct User {\n    address addr;\n    string transformed; // hash that allows to store and retrieve data\n  }\n\n  mapping (string => address) private patients; // index fingerprint to user\n  mapping (address => string) private patientToFunc;\n  mapping (address => AccessData[]) public dataAccesses;\n  mapping (address => UpdateData[]) public dataUpdates;\n\n  event patientCreated();\n  event dataUpdated(address patient);\n  event dataAccessed(address requester, address patient);\n  event contractInitialized();\n\n  modifier ownlerOnly() {\n    require(msg.sender == owner);\n    _;\n  }\n\n\n//constructor\n  function Patient() public {\n    owner = msg.sender; // patient owner of the contract ?\n    contractInitialized();\n  }\n\n  function userExists(string indexPrint) constant public returns (bool) {\n    if (patients[indexPrint] == address(0)) return false;\n    else return true;\n  }\n\n  function createPatient(address _addr, string _indexFingerprint, string _func) public {\n    patients[_indexFingerprint] = _addr;\n    patientToFunc[_addr] = _func;\n    patientCreated();\n  }\n\n  function accessData(address _requester, string _indexFingerprint) constant public returns (string) {\n    uint time = now;\n    address patientAddr = patients[_indexFingerprint];\n    dataAccesses[patientAddr].push(AccessData({\n      requester: _requester,\n      timestamp: time\n      }));\n    dataAccessed(_requester, patientAddr);\n    string storage func = patientToFunc[patientAddr];\n    return func;\n  }\n\n  function updateData(address _pcp, string _ipfshashHash, string _jsonHash) ownlerOnly() public {\n    uint time = now;\n    uint updates = dataUpdates[_pcp][dataUpdates[_pcp].length -1].numberOfUpdates;\n    dataUpdates[_pcp].push(UpdateData({\n      updater: _pcp,\n      numberOfUpdates: updates + 1,\n      timestamp: time,\n      jsonHash: _jsonHash,\n      ipfs2Hash: _ipfshashHash}));\n    dataUpdated(_pcp);\n  }\n}\n",
  "sourcePath": "/Users/federico/Desktop/Blockchain/HealthChain/contracts/Patient.sol",
  "compiler": {
    "name": "solc",
    "version": "0.4.18+commit.9cf6e910.Emscripten.clang"
  },
  "schemaVersion": "1.0.1",
  "updatedAt": "2017-12-08T08:47:22.350Z"
}